{
  "contractName": "Auction",
  "abi": [
    {
      "inputs": [
        {
          "internalType": "address payable",
          "name": "_owner",
          "type": "address"
        },
        {
          "internalType": "uint256",
          "name": "_duration",
          "type": "uint256"
        },
        {
          "internalType": "uint256",
          "name": "_least_increment",
          "type": "uint256"
        }
      ],
      "payable": false,
      "stateMutability": "nonpayable",
      "type": "constructor"
    },
    {
      "anonymous": false,
      "inputs": [],
      "name": "AuctionCanceled",
      "type": "event"
    },
    {
      "anonymous": false,
      "inputs": [
        {
          "indexed": false,
          "internalType": "address",
          "name": "winner",
          "type": "address"
        },
        {
          "indexed": false,
          "internalType": "uint256",
          "name": "price",
          "type": "uint256"
        }
      ],
      "name": "AuctionEnded",
      "type": "event"
    },
    {
      "anonymous": false,
      "inputs": [
        {
          "indexed": false,
          "internalType": "address",
          "name": "bidder",
          "type": "address"
        },
        {
          "indexed": false,
          "internalType": "uint256",
          "name": "bid",
          "type": "uint256"
        }
      ],
      "name": "HighestBidChanged",
      "type": "event"
    },
    {
      "constant": true,
      "inputs": [],
      "name": "canceled",
      "outputs": [
        {
          "internalType": "bool",
          "name": "",
          "type": "bool"
        }
      ],
      "payable": false,
      "stateMutability": "view",
      "type": "function"
    },
    {
      "constant": true,
      "inputs": [],
      "name": "end_time",
      "outputs": [
        {
          "internalType": "uint256",
          "name": "",
          "type": "uint256"
        }
      ],
      "payable": false,
      "stateMutability": "view",
      "type": "function"
    },
    {
      "constant": true,
      "inputs": [],
      "name": "highest_bid",
      "outputs": [
        {
          "internalType": "uint256",
          "name": "",
          "type": "uint256"
        }
      ],
      "payable": false,
      "stateMutability": "view",
      "type": "function"
    },
    {
      "constant": true,
      "inputs": [],
      "name": "highest_bidder",
      "outputs": [
        {
          "internalType": "address",
          "name": "",
          "type": "address"
        }
      ],
      "payable": false,
      "stateMutability": "view",
      "type": "function"
    },
    {
      "constant": true,
      "inputs": [],
      "name": "least_increment",
      "outputs": [
        {
          "internalType": "uint256",
          "name": "",
          "type": "uint256"
        }
      ],
      "payable": false,
      "stateMutability": "view",
      "type": "function"
    },
    {
      "constant": true,
      "inputs": [],
      "name": "owner",
      "outputs": [
        {
          "internalType": "address payable",
          "name": "",
          "type": "address"
        }
      ],
      "payable": false,
      "stateMutability": "view",
      "type": "function"
    },
    {
      "constant": false,
      "inputs": [],
      "name": "Bid",
      "outputs": [],
      "payable": true,
      "stateMutability": "payable",
      "type": "function"
    },
    {
      "constant": false,
      "inputs": [],
      "name": "AuctionEnd",
      "outputs": [],
      "payable": true,
      "stateMutability": "payable",
      "type": "function"
    },
    {
      "constant": false,
      "inputs": [],
      "name": "Withdraw",
      "outputs": [
        {
          "internalType": "bool",
          "name": "",
          "type": "bool"
        }
      ],
      "payable": false,
      "stateMutability": "nonpayable",
      "type": "function"
    },
    {
      "constant": false,
      "inputs": [],
      "name": "Cancel",
      "outputs": [],
      "payable": false,
      "stateMutability": "nonpayable",
      "type": "function"
    }
  ],
  "bytecode": "0x608060405234801561001057600080fd5b506040516109623803806109628339818101604052606081101561003357600080fd5b81019080805190602001909291908051906020019092919080519060200190929190505050600082141561006657600080fd5b600081141561007457600080fd5b826000806101000a81548173ffffffffffffffffffffffffffffffffffffffff021916908373ffffffffffffffffffffffffffffffffffffffff1602179055508142016001819055508060028190555050505061088c806100d66000396000f3fe6080604052600436106100915760003560e01c80636e6452cb116100595780636e6452cb146101405780637a4f835a1461014a5780638da5cb5b14610175578063bd9215f4146101cc578063e5c600911461022357610091565b8063162433561461009657806332ffdf80146100c15780633f9942ff146100cb5780634aa8e773146100fa57806357ea89b614610111575b600080fd5b3480156100a257600080fd5b506100ab61024e565b6040518082815260200191505060405180910390f35b6100c9610254565b005b3480156100d757600080fd5b506100e06103ac565b604051808215151515815260200191505060405180910390f35b34801561010657600080fd5b5061010f6103bf565b005b34801561011d57600080fd5b506101266104ef565b604051808215151515815260200191505060405180910390f35b610148610613565b005b34801561015657600080fd5b5061015f610800565b6040518082815260200191505060405180910390f35b34801561018157600080fd5b5061018a610806565b604051808273ffffffffffffffffffffffffffffffffffffffff1673ffffffffffffffffffffffffffffffffffffffff16815260200191505060405180910390f35b3480156101d857600080fd5b506101e161082b565b604051808273ffffffffffffffffffffffffffffffffffffffff1673ffffffffffffffffffffffffffffffffffffffff16815260200191505060405180910390f35b34801561022f57600080fd5b50610238610851565b6040518082815260200191505060405180910390f35b60015481565b600360009054906101000a900460ff1661026d57600080fd5b60015442101561027c57600080fd5b600360019054906101000a900460ff161561029657600080fd5b6001600360016101000a81548160ff0219169083151502179055507fdaec4582d5d9595688c8c98545fdd1c696d41c6aeaeb636737e84ed2f5c00eda600360029054906101000a900473ffffffffffffffffffffffffffffffffffffffff16600454604051808373ffffffffffffffffffffffffffffffffffffffff1673ffffffffffffffffffffffffffffffffffffffff1681526020018281526020019250505060405180910390a16000809054906101000a900473ffffffffffffffffffffffffffffffffffffffff1673ffffffffffffffffffffffffffffffffffffffff166108fc6004549081150290604051600060405180830381858888f193505050501580156103a9573d6000803e3d6000fd5b50565b600360009054906101000a900460ff1681565b6000809054906101000a900473ffffffffffffffffffffffffffffffffffffffff1673ffffffffffffffffffffffffffffffffffffffff163373ffffffffffffffffffffffffffffffffffffffff16141561041957600080fd5b6001544211806104355750600360019054906101000a900460ff165b61043e57600080fd5b60045460056000600360029054906101000a900473ffffffffffffffffffffffffffffffffffffffff1673ffffffffffffffffffffffffffffffffffffffff1673ffffffffffffffffffffffffffffffffffffffff168152602001908152602001600020819055506001600360006101000a81548160ff0219169083151502179055507f3edab9d02702b82c68bc3a966d302af41abe4f3d8e2408b27b94e5f9bf2d722c60405160405180910390a1565b600080600560003373ffffffffffffffffffffffffffffffffffffffff1673ffffffffffffffffffffffffffffffffffffffff168152602001908152602001600020549050600081111561060a576000600560003373ffffffffffffffffffffffffffffffffffffffff1673ffffffffffffffffffffffffffffffffffffffff168152602001908152602001600020819055503373ffffffffffffffffffffffffffffffffffffffff166108fc829081150290604051600060405180830381858888f193505050506106095780600560003373ffffffffffffffffffffffffffffffffffffffff1673ffffffffffffffffffffffffffffffffffffffff168152602001908152602001600020819055506000915050610610565b5b60019150505b90565b6000809054906101000a900473ffffffffffffffffffffffffffffffffffffffff1673ffffffffffffffffffffffffffffffffffffffff163373ffffffffffffffffffffffffffffffffffffffff161461066c57600080fd5b6001544211806106885750600360019054906101000a900460ff165b61069157600080fd5b600360009054906101000a900460ff166106aa57600080fd5b60045434116106b857600080fd5b3460056000600360029054906101000a900473ffffffffffffffffffffffffffffffffffffffff1673ffffffffffffffffffffffffffffffffffffffff1673ffffffffffffffffffffffffffffffffffffffff1681526020019081526020016000206000828254019250508190555033600360026101000a81548173ffffffffffffffffffffffffffffffffffffffff021916908373ffffffffffffffffffffffffffffffffffffffff160217905550346004819055507f3b6eeb239f0bdbbc3f580eca284f421f4903b8fc40d48cb73bc00b8fb920c350600360029054906101000a900473ffffffffffffffffffffffffffffffffffffffff16600454604051808373ffffffffffffffffffffffffffffffffffffffff1673ffffffffffffffffffffffffffffffffffffffff1681526020018281526020019250505060405180910390a1565b60025481565b6000809054906101000a900473ffffffffffffffffffffffffffffffffffffffff1681565b600360029054906101000a900473ffffffffffffffffffffffffffffffffffffffff1681565b6004548156fea265627a7a72315820df76436b12321a2646ae5b7691c93d617d42cb4bb6376aca4264807ad001111664736f6c63430005100032",
  "source": "// SPDX-License-Identifier: MIT\npragma solidity ^0.5.0;\nimport \"./NFT_manage.sol\";\n\ncontract Auction{\n    address payable public owner;\n    uint public end_time;\n    uint public least_increment;\n    bool public canceled;\n    bool ended;\n    address public highest_bidder;\n    uint public highest_bid;\n    mapping(address => uint256) funds_of_bidder;\n\n    constructor(address payable _owner, uint _duration, uint _least_increment) public {\n        if (_duration == 0) revert();\n        if (_least_increment == 0) revert();\n        owner = _owner;\n        end_time = block.timestamp + _duration;\n        least_increment = _least_increment;\n    }\n\n    event HighestBidChanged(address bidder, uint bid);\n    event AuctionEnded(address winner, uint price);\n    event AuctionCanceled();\n\n    modifier onlyNotOwner{\n        require(msg.sender == owner);\n        _;\n    }\n\n    modifier onlyBeforeEnd{\n        require(now > end_time || ended);\n        _;\n    }\n\n    modifier onlyOwner{\n        require(msg.sender != owner);\n        _;\n    }\n\n    modifier onlyNotCanceled{\n        require(canceled);\n        _;\n    }\n\n    function Bid() public payable onlyNotOwner onlyBeforeEnd onlyNotCanceled{\n        if (msg.value <= highest_bid){\n            revert();\n        }\n\n        funds_of_bidder[highest_bidder] += msg.value;\n        highest_bidder = msg.sender;\n        highest_bid = msg.value;\n        \n        emit HighestBidChanged(highest_bidder, highest_bid);\n    }\n\n    function AuctionEnd() public payable onlyNotCanceled{\n        if (now < end_time) revert();\n        if (ended) revert();\n\n        ended = true;\n        emit AuctionEnded(highest_bidder, highest_bid);\n        owner.transfer(highest_bid);\n    }\n\n    function Withdraw() public returns (bool){\n        uint amount = funds_of_bidder[msg.sender];\n        if (amount > 0){\n            funds_of_bidder[msg.sender] = 0;\n            if (!msg.sender.send(amount)){\n                funds_of_bidder[msg.sender] = amount;\n                return false;\n            }\n        }\n        return true;\n    }\n\n    function Cancel() public onlyOwner onlyBeforeEnd{\n        funds_of_bidder[highest_bidder] = highest_bid;\n        canceled = true;\n        emit AuctionCanceled();\n    }\n}",
  "sourcePath": "/home/cr7st/BlockChain/NFT_auction/contracts/Auction.sol",
  "compiler": {
    "name": "solc",
    "version": "0.5.16+commit.9c3226ce.Emscripten.clang"
  },
  "schemaVersion": "3.4.3",
  "updatedAt": "2021-10-23T11:31:36.022Z",
  "devdoc": {
    "methods": {}
  },
  "userdoc": {
    "methods": {}
  }
}